{
  "_format": "hh-sol-artifact-1",
  "contractName": "CertificateStorage",
  "sourceName": "contracts/Certificate.sol",
  "abi": [
    {
      "inputs": [
        {
          "internalType": "string",
          "name": "",
          "type": "string"
        }
      ],
      "name": "certificates",
      "outputs": [
        {
          "internalType": "address",
          "name": "issuerAddress",
          "type": "address"
        },
        {
          "internalType": "uint256",
          "name": "timeStamp",
          "type": "uint256"
        },
        {
          "internalType": "bool",
          "name": "isRevoked",
          "type": "bool"
        }
      ],
      "stateMutability": "view",
      "type": "function"
    },
    {
      "inputs": [
        {
          "internalType": "string",
          "name": "_ipfsHash",
          "type": "string"
        },
        {
          "internalType": "address",
          "name": "_issuerAddress",
          "type": "address"
        }
      ],
      "name": "checkExistence",
      "outputs": [
        {
          "internalType": "bool",
          "name": "",
          "type": "bool"
        }
      ],
      "stateMutability": "view",
      "type": "function"
    },
    {
      "inputs": [
        {
          "internalType": "string",
          "name": "_orgAddress",
          "type": "string"
        }
      ],
      "name": "checkOganisationExistence",
      "outputs": [
        {
          "internalType": "bool",
          "name": "",
          "type": "bool"
        }
      ],
      "stateMutability": "view",
      "type": "function"
    },
    {
      "inputs": [
        {
          "internalType": "string",
          "name": "_ipfsHash",
          "type": "string"
        }
      ],
      "name": "getCertificate",
      "outputs": [
        {
          "internalType": "address",
          "name": "issuerAddress",
          "type": "address"
        },
        {
          "internalType": "uint256",
          "name": "timeStamp",
          "type": "uint256"
        },
        {
          "internalType": "bool",
          "name": "isRevoked",
          "type": "bool"
        }
      ],
      "stateMutability": "view",
      "type": "function"
    },
    {
      "inputs": [
        {
          "internalType": "string",
          "name": "",
          "type": "string"
        }
      ],
      "name": "organisations",
      "outputs": [
        {
          "internalType": "string",
          "name": "",
          "type": "string"
        }
      ],
      "stateMutability": "view",
      "type": "function"
    },
    {
      "inputs": [
        {
          "internalType": "string",
          "name": "_ipfsHash",
          "type": "string"
        }
      ],
      "name": "revokeCertificate",
      "outputs": [
        {
          "internalType": "bool",
          "name": "",
          "type": "bool"
        }
      ],
      "stateMutability": "nonpayable",
      "type": "function"
    },
    {
      "inputs": [
        {
          "internalType": "string",
          "name": "_ipfsHash",
          "type": "string"
        },
        {
          "internalType": "address",
          "name": "_issuerAddress",
          "type": "address"
        }
      ],
      "name": "storeCertificate",
      "outputs": [],
      "stateMutability": "nonpayable",
      "type": "function"
    },
    {
      "inputs": [
        {
          "internalType": "string",
          "name": "_orgAddress",
          "type": "string"
        },
        {
          "internalType": "string",
          "name": "_orgName",
          "type": "string"
        }
      ],
      "name": "storeOrganisation",
      "outputs": [],
      "stateMutability": "nonpayable",
      "type": "function"
    }
  ],
  "bytecode": "0x6080604052348015600f57600080fd5b5061119c8061001f6000396000f3fe608060405234801561001057600080fd5b50600436106100885760003560e01c80638f2b91ea1161005b5780638f2b91ea14610139578063b04f35351461016b578063e7993bb91461019b578063ed0f2e75146101b757610088565b8063142e15421461008d5780635222275f146100bd57806363db7fb1146100ed57806376ef63031461011d575b600080fd5b6100a760048036038101906100a29190610a40565b6101e9565b6040516100b49190610aa4565b60405180910390f35b6100d760048036038101906100d29190610a40565b610352565b6040516100e49190610aa4565b60405180910390f35b61010760048036038101906101029190610a40565b610388565b6040516101149190610b3e565b60405180910390f35b61013760048036038101906101329190610b60565b61043e565b005b610153600480360381019061014e9190610a40565b61046e565b60405161016293929190610c32565b60405180910390f35b61018560048036038101906101809190610c95565b6104db565b6040516101929190610aa4565b60405180910390f35b6101b560048036038101906101b09190610c95565b6105ce565b005b6101d160048036038101906101cc9190610a40565b610771565b6040516101e093929190610c32565b60405180910390f35b60008073ffffffffffffffffffffffffffffffffffffffff166000836040516102129190610d2d565b908152602001604051809103902060000160009054906101000a900473ffffffffffffffffffffffffffffffffffffffff1673ffffffffffffffffffffffffffffffffffffffff160361029a576040517f08c379a000000000000000000000000000000000000000000000000000000000815260040161029190610d90565b60405180910390fd5b600015156000836040516102ae9190610d2d565b908152602001604051809103902060020160009054906101000a900460ff1615151461030f576040517f08c379a000000000000000000000000000000000000000000000000000000000815260040161030690610dfc565b60405180910390fd5b60016000836040516103219190610d2d565b908152602001604051809103902060020160006101000a81548160ff02191690831515021790555060019050919050565b6000806001836040516103659190610d2d565b9081526020016040518091039020805461037e90610e4b565b9050119050919050565b60018180516020810182018051848252602083016020850120818352809550505050505060009150905080546103bd90610e4b565b80601f01602080910402602001604051908101604052809291908181526020018280546103e990610e4b565b80156104365780601f1061040b57610100808354040283529160200191610436565b820191906000526020600020905b81548152906001019060200180831161041957829003601f168201915b505050505081565b8060018360405161044f9190610d2d565b908152602001604051809103902090816104699190611028565b505050565b6000818051602081018201805184825260208301602085012081835280955050505050506000915090508060000160009054906101000a900473ffffffffffffffffffffffffffffffffffffffff16908060010154908060020160009054906101000a900460ff16905083565b6000806000846040516104ee9190610d2d565b90815260200160405180910390206040518060600160405290816000820160009054906101000a900473ffffffffffffffffffffffffffffffffffffffff1673ffffffffffffffffffffffffffffffffffffffff1673ffffffffffffffffffffffffffffffffffffffff168152602001600182015481526020016002820160009054906101000a900460ff16151515158152505090508273ffffffffffffffffffffffffffffffffffffffff16816000015173ffffffffffffffffffffffffffffffffffffffff161480156105c557508060400151155b91505092915050565b600073ffffffffffffffffffffffffffffffffffffffff166000836040516105f69190610d2d565b908152602001604051809103902060000160009054906101000a900473ffffffffffffffffffffffffffffffffffffffff1673ffffffffffffffffffffffffffffffffffffffff161461067e576040517f08c379a000000000000000000000000000000000000000000000000000000000815260040161067590611146565b60405180910390fd5b6106866108ad565b81816000019073ffffffffffffffffffffffffffffffffffffffff16908173ffffffffffffffffffffffffffffffffffffffff1681525050428160200181815250506000816040019015159081151581525050806000846040516106ea9190610d2d565b908152602001604051809103902060008201518160000160006101000a81548173ffffffffffffffffffffffffffffffffffffffff021916908373ffffffffffffffffffffffffffffffffffffffff1602179055506020820151816001015560408201518160020160006101000a81548160ff021916908315150217905550905050505050565b6000806000806000856040516107879190610d2d565b90815260200160405180910390206040518060600160405290816000820160009054906101000a900473ffffffffffffffffffffffffffffffffffffffff1673ffffffffffffffffffffffffffffffffffffffff1673ffffffffffffffffffffffffffffffffffffffff168152602001600182015481526020016002820160009054906101000a900460ff1615151515815250509050600073ffffffffffffffffffffffffffffffffffffffff16816000015173ffffffffffffffffffffffffffffffffffffffff1603610890576040517f08c379a000000000000000000000000000000000000000000000000000000000815260040161088790610d90565b60405180910390fd5b806000015181602001518260400151935093509350509193909250565b6040518060600160405280600073ffffffffffffffffffffffffffffffffffffffff168152602001600081526020016000151581525090565b6000604051905090565b600080fd5b600080fd5b600080fd5b600080fd5b6000601f19601f8301169050919050565b7f4e487b7100000000000000000000000000000000000000000000000000000000600052604160045260246000fd5b61094d82610904565b810181811067ffffffffffffffff8211171561096c5761096b610915565b5b80604052505050565b600061097f6108e6565b905061098b8282610944565b919050565b600067ffffffffffffffff8211156109ab576109aa610915565b5b6109b482610904565b9050602081019050919050565b82818337600083830152505050565b60006109e36109de84610990565b610975565b9050828152602081018484840111156109ff576109fe6108ff565b5b610a0a8482856109c1565b509392505050565b600082601f830112610a2757610a266108fa565b5b8135610a378482602086016109d0565b91505092915050565b600060208284031215610a5657610a556108f0565b5b600082013567ffffffffffffffff811115610a7457610a736108f5565b5b610a8084828501610a12565b91505092915050565b60008115159050919050565b610a9e81610a89565b82525050565b6000602082019050610ab96000830184610a95565b92915050565b600081519050919050565b600082825260208201905092915050565b60005b83811015610af9578082015181840152602081019050610ade565b60008484015250505050565b6000610b1082610abf565b610b1a8185610aca565b9350610b2a818560208601610adb565b610b3381610904565b840191505092915050565b60006020820190508181036000830152610b588184610b05565b905092915050565b60008060408385031215610b7757610b766108f0565b5b600083013567ffffffffffffffff811115610b9557610b946108f5565b5b610ba185828601610a12565b925050602083013567ffffffffffffffff811115610bc257610bc16108f5565b5b610bce85828601610a12565b9150509250929050565b600073ffffffffffffffffffffffffffffffffffffffff82169050919050565b6000610c0382610bd8565b9050919050565b610c1381610bf8565b82525050565b6000819050919050565b610c2c81610c19565b82525050565b6000606082019050610c476000830186610c0a565b610c546020830185610c23565b610c616040830184610a95565b949350505050565b610c7281610bf8565b8114610c7d57600080fd5b50565b600081359050610c8f81610c69565b92915050565b60008060408385031215610cac57610cab6108f0565b5b600083013567ffffffffffffffff811115610cca57610cc96108f5565b5b610cd685828601610a12565b9250506020610ce785828601610c80565b9150509250929050565b600081905092915050565b6000610d0782610abf565b610d118185610cf1565b9350610d21818560208601610adb565b80840191505092915050565b6000610d398284610cfc565b915081905092915050565b7f436572746966696361746520646f6573206e6f74206578697374000000000000600082015250565b6000610d7a601a83610aca565b9150610d8582610d44565b602082019050919050565b60006020820190508181036000830152610da981610d6d565b9050919050565b7f436572746966696361746520697320616c7265616479207265766f6b65640000600082015250565b6000610de6601e83610aca565b9150610df182610db0565b602082019050919050565b60006020820190508181036000830152610e1581610dd9565b9050919050565b7f4e487b7100000000000000000000000000000000000000000000000000000000600052602260045260246000fd5b60006002820490506001821680610e6357607f821691505b602082108103610e7657610e75610e1c565b5b50919050565b60008190508160005260206000209050919050565b60006020601f8301049050919050565b600082821b905092915050565b600060088302610ede7fffffffffffffffffffffffffffffffffffffffffffffffffffffffffffffffff82610ea1565b610ee88683610ea1565b95508019841693508086168417925050509392505050565b6000819050919050565b6000610f25610f20610f1b84610c19565b610f00565b610c19565b9050919050565b6000819050919050565b610f3f83610f0a565b610f53610f4b82610f2c565b848454610eae565b825550505050565b600090565b610f68610f5b565b610f73818484610f36565b505050565b5b81811015610f9757610f8c600082610f60565b600181019050610f79565b5050565b601f821115610fdc57610fad81610e7c565b610fb684610e91565b81016020851015610fc5578190505b610fd9610fd185610e91565b830182610f78565b50505b505050565b600082821c905092915050565b6000610fff60001984600802610fe1565b1980831691505092915050565b60006110188383610fee565b9150826002028217905092915050565b61103182610abf565b67ffffffffffffffff81111561104a57611049610915565b5b6110548254610e4b565b61105f828285610f9b565b600060209050601f8311600181146110925760008415611080578287015190505b61108a858261100c565b8655506110f2565b601f1984166110a086610e7c565b60005b828110156110c8578489015182556001820191506020850194506020810190506110a3565b868310156110e557848901516110e1601f891682610fee565b8355505b6001600288020188555050505b505050505050565b7f436572746966696361746520616c726561647920657869737473000000000000600082015250565b6000611130601a83610aca565b915061113b826110fa565b602082019050919050565b6000602082019050818103600083015261115f81611123565b905091905056fea264697066735822122094de02d67fad03541a5299ca33285cb3284f31c3e8a1e090ea1f11468ffb733f64736f6c634300081c0033",
  "linkReferences": {},
  "deployedLinkReferences": {}
}