{
  "_format": "hh-sol-artifact-1",
  "contractName": "CertificateStorage",
  "sourceName": "contracts/Certificate.sol",
  "abi": [
    {
      "inputs": [
        {
          "internalType": "string",
          "name": "",
          "type": "string"
        }
      ],
      "name": "certificates",
      "outputs": [
        {
          "internalType": "address",
          "name": "issuerAddress",
          "type": "address"
        },
        {
          "internalType": "uint256",
          "name": "timeStamp",
          "type": "uint256"
        },
        {
          "internalType": "bool",
          "name": "isRevoked",
          "type": "bool"
        }
      ],
      "stateMutability": "view",
      "type": "function"
    },
    {
      "inputs": [
        {
          "internalType": "string",
          "name": "_ipfsHash",
          "type": "string"
        },
        {
          "internalType": "address",
          "name": "_issuerAddress",
          "type": "address"
        }
      ],
      "name": "checkExistence",
      "outputs": [
        {
          "internalType": "bool",
          "name": "",
          "type": "bool"
        }
      ],
      "stateMutability": "view",
      "type": "function"
    },
    {
      "inputs": [
        {
          "internalType": "string",
          "name": "_ipfsHash",
          "type": "string"
        }
      ],
      "name": "getCertificate",
      "outputs": [
        {
          "internalType": "address",
          "name": "issuerAddress",
          "type": "address"
        },
        {
          "internalType": "uint256",
          "name": "timeStamp",
          "type": "uint256"
        },
        {
          "internalType": "bool",
          "name": "isRevoked",
          "type": "bool"
        }
      ],
      "stateMutability": "view",
      "type": "function"
    },
    {
      "inputs": [
        {
          "internalType": "string",
          "name": "_ipfsHash",
          "type": "string"
        }
      ],
      "name": "revokeCertificate",
      "outputs": [
        {
          "internalType": "bool",
          "name": "",
          "type": "bool"
        }
      ],
      "stateMutability": "nonpayable",
      "type": "function"
    },
    {
      "inputs": [
        {
          "internalType": "string",
          "name": "_ipfsHash",
          "type": "string"
        },
        {
          "internalType": "address",
          "name": "_issuerAddress",
          "type": "address"
        }
      ],
      "name": "storeCertificate",
      "outputs": [],
      "stateMutability": "nonpayable",
      "type": "function"
    }
  ],
  "bytecode": "0x6080604052348015600f57600080fd5b50610c228061001f6000396000f3fe608060405234801561001057600080fd5b50600436106100575760003560e01c8063142e15421461005c5780638f2b91ea1461008c578063b04f3535146100be578063e7993bb9146100ee578063ed0f2e751461010a575b600080fd5b61007660048036038101906100719190610877565b61013c565b60405161008391906108db565b60405180910390f35b6100a660048036038101906100a19190610877565b6102a5565b6040516100b593929190610950565b60405180910390f35b6100d860048036038101906100d391906109b3565b610312565b6040516100e591906108db565b60405180910390f35b610108600480360381019061010391906109b3565b610405565b005b610124600480360381019061011f9190610877565b6105a8565b60405161013393929190610950565b60405180910390f35b60008073ffffffffffffffffffffffffffffffffffffffff166000836040516101659190610a80565b908152602001604051809103902060000160009054906101000a900473ffffffffffffffffffffffffffffffffffffffff1673ffffffffffffffffffffffffffffffffffffffff16036101ed576040517f08c379a00000000000000000000000000000000000000000000000000000000081526004016101e490610af4565b60405180910390fd5b600015156000836040516102019190610a80565b908152602001604051809103902060020160009054906101000a900460ff16151514610262576040517f08c379a000000000000000000000000000000000000000000000000000000000815260040161025990610b60565b60405180910390fd5b60016000836040516102749190610a80565b908152602001604051809103902060020160006101000a81548160ff02191690831515021790555060019050919050565b6000818051602081018201805184825260208301602085012081835280955050505050506000915090508060000160009054906101000a900473ffffffffffffffffffffffffffffffffffffffff16908060010154908060020160009054906101000a900460ff16905083565b6000806000846040516103259190610a80565b90815260200160405180910390206040518060600160405290816000820160009054906101000a900473ffffffffffffffffffffffffffffffffffffffff1673ffffffffffffffffffffffffffffffffffffffff1673ffffffffffffffffffffffffffffffffffffffff168152602001600182015481526020016002820160009054906101000a900460ff16151515158152505090508273ffffffffffffffffffffffffffffffffffffffff16816000015173ffffffffffffffffffffffffffffffffffffffff161480156103fc57508060400151155b91505092915050565b600073ffffffffffffffffffffffffffffffffffffffff1660008360405161042d9190610a80565b908152602001604051809103902060000160009054906101000a900473ffffffffffffffffffffffffffffffffffffffff1673ffffffffffffffffffffffffffffffffffffffff16146104b5576040517f08c379a00000000000000000000000000000000000000000000000000000000081526004016104ac90610bcc565b60405180910390fd5b6104bd6106e4565b81816000019073ffffffffffffffffffffffffffffffffffffffff16908173ffffffffffffffffffffffffffffffffffffffff1681525050428160200181815250506000816040019015159081151581525050806000846040516105219190610a80565b908152602001604051809103902060008201518160000160006101000a81548173ffffffffffffffffffffffffffffffffffffffff021916908373ffffffffffffffffffffffffffffffffffffffff1602179055506020820151816001015560408201518160020160006101000a81548160ff021916908315150217905550905050505050565b6000806000806000856040516105be9190610a80565b90815260200160405180910390206040518060600160405290816000820160009054906101000a900473ffffffffffffffffffffffffffffffffffffffff1673ffffffffffffffffffffffffffffffffffffffff1673ffffffffffffffffffffffffffffffffffffffff168152602001600182015481526020016002820160009054906101000a900460ff1615151515815250509050600073ffffffffffffffffffffffffffffffffffffffff16816000015173ffffffffffffffffffffffffffffffffffffffff16036106c7576040517f08c379a00000000000000000000000000000000000000000000000000000000081526004016106be90610af4565b60405180910390fd5b806000015181602001518260400151935093509350509193909250565b6040518060600160405280600073ffffffffffffffffffffffffffffffffffffffff168152602001600081526020016000151581525090565b6000604051905090565b600080fd5b600080fd5b600080fd5b600080fd5b6000601f19601f8301169050919050565b7f4e487b7100000000000000000000000000000000000000000000000000000000600052604160045260246000fd5b6107848261073b565b810181811067ffffffffffffffff821117156107a3576107a261074c565b5b80604052505050565b60006107b661071d565b90506107c2828261077b565b919050565b600067ffffffffffffffff8211156107e2576107e161074c565b5b6107eb8261073b565b9050602081019050919050565b82818337600083830152505050565b600061081a610815846107c7565b6107ac565b90508281526020810184848401111561083657610835610736565b5b6108418482856107f8565b509392505050565b600082601f83011261085e5761085d610731565b5b813561086e848260208601610807565b91505092915050565b60006020828403121561088d5761088c610727565b5b600082013567ffffffffffffffff8111156108ab576108aa61072c565b5b6108b784828501610849565b91505092915050565b60008115159050919050565b6108d5816108c0565b82525050565b60006020820190506108f060008301846108cc565b92915050565b600073ffffffffffffffffffffffffffffffffffffffff82169050919050565b6000610921826108f6565b9050919050565b61093181610916565b82525050565b6000819050919050565b61094a81610937565b82525050565b60006060820190506109656000830186610928565b6109726020830185610941565b61097f60408301846108cc565b949350505050565b61099081610916565b811461099b57600080fd5b50565b6000813590506109ad81610987565b92915050565b600080604083850312156109ca576109c9610727565b5b600083013567ffffffffffffffff8111156109e8576109e761072c565b5b6109f485828601610849565b9250506020610a058582860161099e565b9150509250929050565b600081519050919050565b600081905092915050565b60005b83811015610a43578082015181840152602081019050610a28565b60008484015250505050565b6000610a5a82610a0f565b610a648185610a1a565b9350610a74818560208601610a25565b80840191505092915050565b6000610a8c8284610a4f565b915081905092915050565b600082825260208201905092915050565b7f436572746966696361746520646f6573206e6f74206578697374000000000000600082015250565b6000610ade601a83610a97565b9150610ae982610aa8565b602082019050919050565b60006020820190508181036000830152610b0d81610ad1565b9050919050565b7f436572746966696361746520697320616c7265616479207265766f6b65640000600082015250565b6000610b4a601e83610a97565b9150610b5582610b14565b602082019050919050565b60006020820190508181036000830152610b7981610b3d565b9050919050565b7f436572746966696361746520616c726561647920657869737473000000000000600082015250565b6000610bb6601a83610a97565b9150610bc182610b80565b602082019050919050565b60006020820190508181036000830152610be581610ba9565b905091905056fea26469706673582212204b8656feda7f4590dc329b53439a949cb22b7dfea1a5fa48296c1ce5dab6d91064736f6c634300081c0033",
  "linkReferences": {},
  "deployedLinkReferences": {}
}