{
  "_format": "hh-sol-artifact-1",
  "contractName": "CertificateStorage",
  "sourceName": "contracts/Certificate.sol",
  "abi": [
    {
      "inputs": [
        {
          "internalType": "string",
          "name": "",
          "type": "string"
        }
      ],
      "name": "certificates",
      "outputs": [
        {
          "internalType": "address",
          "name": "issuerAddress",
          "type": "address"
        },
        {
          "internalType": "uint256",
          "name": "timeStamp",
          "type": "uint256"
        },
        {
          "internalType": "bool",
          "name": "isRevoked",
          "type": "bool"
        }
      ],
      "stateMutability": "view",
      "type": "function"
    },
    {
      "inputs": [
        {
          "internalType": "string",
          "name": "_ipfsHash",
          "type": "string"
        },
        {
          "internalType": "address",
          "name": "_issuerAddress",
          "type": "address"
        }
      ],
      "name": "checkExistence",
      "outputs": [
        {
          "internalType": "bool",
          "name": "",
          "type": "bool"
        }
      ],
      "stateMutability": "view",
      "type": "function"
    },
    {
      "inputs": [
        {
          "internalType": "string",
          "name": "_orgAddress",
          "type": "string"
        }
      ],
      "name": "checkOrganisationExistence",
      "outputs": [
        {
          "internalType": "bool",
          "name": "",
          "type": "bool"
        }
      ],
      "stateMutability": "view",
      "type": "function"
    },
    {
      "inputs": [
        {
          "internalType": "string",
          "name": "_ipfsHash",
          "type": "string"
        }
      ],
      "name": "getCertificate",
      "outputs": [
        {
          "internalType": "address",
          "name": "issuerAddress",
          "type": "address"
        },
        {
          "internalType": "uint256",
          "name": "timeStamp",
          "type": "uint256"
        },
        {
          "internalType": "bool",
          "name": "isRevoked",
          "type": "bool"
        }
      ],
      "stateMutability": "view",
      "type": "function"
    },
    {
      "inputs": [
        {
          "internalType": "string",
          "name": "_orgAddress",
          "type": "string"
        }
      ],
      "name": "getOrgName",
      "outputs": [
        {
          "internalType": "string",
          "name": "",
          "type": "string"
        }
      ],
      "stateMutability": "view",
      "type": "function"
    },
    {
      "inputs": [
        {
          "internalType": "string",
          "name": "",
          "type": "string"
        }
      ],
      "name": "organisations",
      "outputs": [
        {
          "internalType": "string",
          "name": "",
          "type": "string"
        }
      ],
      "stateMutability": "view",
      "type": "function"
    },
    {
      "inputs": [
        {
          "internalType": "string",
          "name": "_ipfsHash",
          "type": "string"
        }
      ],
      "name": "revokeCertificate",
      "outputs": [
        {
          "internalType": "bool",
          "name": "",
          "type": "bool"
        }
      ],
      "stateMutability": "nonpayable",
      "type": "function"
    },
    {
      "inputs": [
        {
          "internalType": "string",
          "name": "_orgAddress",
          "type": "string"
        }
      ],
      "name": "revokeOrganisation",
      "outputs": [
        {
          "internalType": "bool",
          "name": "",
          "type": "bool"
        }
      ],
      "stateMutability": "nonpayable",
      "type": "function"
    },
    {
      "inputs": [
        {
          "internalType": "string",
          "name": "_ipfsHash",
          "type": "string"
        },
        {
          "internalType": "address",
          "name": "_issuerAddress",
          "type": "address"
        }
      ],
      "name": "storeCertificate",
      "outputs": [],
      "stateMutability": "nonpayable",
      "type": "function"
    },
    {
      "inputs": [
        {
          "internalType": "string",
          "name": "_orgAddress",
          "type": "string"
        },
        {
          "internalType": "string",
          "name": "_orgName",
          "type": "string"
        }
      ],
      "name": "storeOrganisation",
      "outputs": [],
      "stateMutability": "nonpayable",
      "type": "function"
    }
  ],
  "bytecode": "0x6080604052348015600f57600080fd5b506114998061001f6000396000f3fe608060405234801561001057600080fd5b506004361061009e5760003560e01c80638f2b91ea116100665780638f2b91ea1461017f578063af40a7e2146101b1578063b04f3535146101e1578063e7993bb914610211578063ed0f2e751461022d5761009e565b8063142e1542146100a3578063235dec24146100d357806327aca85a1461010357806363db7fb11461013357806376ef630314610163575b600080fd5b6100bd60048036038101906100b89190610cd1565b61025f565b6040516100ca9190610d35565b60405180910390f35b6100ed60048036038101906100e89190610cd1565b6103c8565b6040516100fa9190610d35565b60405180910390f35b61011d60048036038101906101189190610cd1565b610469565b60405161012a9190610dcf565b60405180910390f35b61014d60048036038101906101489190610cd1565b610586565b60405161015a9190610dcf565b60405180910390f35b61017d60048036038101906101789190610df1565b61063c565b005b61019960048036038101906101949190610cd1565b61066c565b6040516101a893929190610ec3565b60405180910390f35b6101cb60048036038101906101c69190610cd1565b6106d9565b6040516101d89190610d35565b60405180910390f35b6101fb60048036038101906101f69190610f26565b61070f565b6040516102089190610d35565b60405180910390f35b61022b60048036038101906102269190610f26565b610802565b005b61024760048036038101906102429190610cd1565b6109a5565b60405161025693929190610ec3565b60405180910390f35b60008073ffffffffffffffffffffffffffffffffffffffff166000836040516102889190610fbe565b908152602001604051809103902060000160009054906101000a900473ffffffffffffffffffffffffffffffffffffffff1673ffffffffffffffffffffffffffffffffffffffff1603610310576040517f08c379a000000000000000000000000000000000000000000000000000000000815260040161030790611021565b60405180910390fd5b600015156000836040516103249190610fbe565b908152602001604051809103902060020160009054906101000a900460ff16151514610385576040517f08c379a000000000000000000000000000000000000000000000000000000000815260040161037c9061108d565b60405180910390fd5b60016000836040516103979190610fbe565b908152602001604051809103902060020160006101000a81548160ff02191690831515021790555060019050919050565b6000806001836040516103db9190610fbe565b908152602001604051809103902080546103f4906110dc565b905011610436576040517f08c379a000000000000000000000000000000000000000000000000000000000815260040161042d90611159565b60405180910390fd5b6001826040516104469190610fbe565b908152602001604051809103902060006104609190610ae1565b60019050919050565b6060600060018360405161047d9190610fbe565b90815260200160405180910390208054610496906110dc565b9050116104d8576040517f08c379a00000000000000000000000000000000000000000000000000000000081526004016104cf90611159565b60405180910390fd5b6001826040516104e89190610fbe565b90815260200160405180910390208054610501906110dc565b80601f016020809104026020016040519081016040528092919081815260200182805461052d906110dc565b801561057a5780601f1061054f5761010080835404028352916020019161057a565b820191906000526020600020905b81548152906001019060200180831161055d57829003601f168201915b50505050509050919050565b60018180516020810182018051848252602083016020850120818352809550505050505060009150905080546105bb906110dc565b80601f01602080910402602001604051908101604052809291908181526020018280546105e7906110dc565b80156106345780601f1061060957610100808354040283529160200191610634565b820191906000526020600020905b81548152906001019060200180831161061757829003601f168201915b505050505081565b8060018360405161064d9190610fbe565b908152602001604051809103902090816106679190611325565b505050565b6000818051602081018201805184825260208301602085012081835280955050505050506000915090508060000160009054906101000a900473ffffffffffffffffffffffffffffffffffffffff16908060010154908060020160009054906101000a900460ff16905083565b6000806001836040516106ec9190610fbe565b90815260200160405180910390208054610705906110dc565b9050119050919050565b6000806000846040516107229190610fbe565b90815260200160405180910390206040518060600160405290816000820160009054906101000a900473ffffffffffffffffffffffffffffffffffffffff1673ffffffffffffffffffffffffffffffffffffffff1673ffffffffffffffffffffffffffffffffffffffff168152602001600182015481526020016002820160009054906101000a900460ff16151515158152505090508273ffffffffffffffffffffffffffffffffffffffff16816000015173ffffffffffffffffffffffffffffffffffffffff161480156107f957508060400151155b91505092915050565b600073ffffffffffffffffffffffffffffffffffffffff1660008360405161082a9190610fbe565b908152602001604051809103902060000160009054906101000a900473ffffffffffffffffffffffffffffffffffffffff1673ffffffffffffffffffffffffffffffffffffffff16146108b2576040517f08c379a00000000000000000000000000000000000000000000000000000000081526004016108a990611443565b60405180910390fd5b6108ba610b21565b81816000019073ffffffffffffffffffffffffffffffffffffffff16908173ffffffffffffffffffffffffffffffffffffffff16815250504281602001818152505060008160400190151590811515815250508060008460405161091e9190610fbe565b908152602001604051809103902060008201518160000160006101000a81548173ffffffffffffffffffffffffffffffffffffffff021916908373ffffffffffffffffffffffffffffffffffffffff1602179055506020820151816001015560408201518160020160006101000a81548160ff021916908315150217905550905050505050565b6000806000806000856040516109bb9190610fbe565b90815260200160405180910390206040518060600160405290816000820160009054906101000a900473ffffffffffffffffffffffffffffffffffffffff1673ffffffffffffffffffffffffffffffffffffffff1673ffffffffffffffffffffffffffffffffffffffff168152602001600182015481526020016002820160009054906101000a900460ff1615151515815250509050600073ffffffffffffffffffffffffffffffffffffffff16816000015173ffffffffffffffffffffffffffffffffffffffff1603610ac4576040517f08c379a0000000000000000000000000000000000000000000000000000000008152600401610abb90611021565b60405180910390fd5b806000015181602001518260400151935093509350509193909250565b508054610aed906110dc565b6000825580601f10610aff5750610b1e565b601f016020900490600052602060002090810190610b1d9190610b5a565b5b50565b6040518060600160405280600073ffffffffffffffffffffffffffffffffffffffff168152602001600081526020016000151581525090565b5b80821115610b73576000816000905550600101610b5b565b5090565b6000604051905090565b600080fd5b600080fd5b600080fd5b600080fd5b6000601f19601f8301169050919050565b7f4e487b7100000000000000000000000000000000000000000000000000000000600052604160045260246000fd5b610bde82610b95565b810181811067ffffffffffffffff82111715610bfd57610bfc610ba6565b5b80604052505050565b6000610c10610b77565b9050610c1c8282610bd5565b919050565b600067ffffffffffffffff821115610c3c57610c3b610ba6565b5b610c4582610b95565b9050602081019050919050565b82818337600083830152505050565b6000610c74610c6f84610c21565b610c06565b905082815260208101848484011115610c9057610c8f610b90565b5b610c9b848285610c52565b509392505050565b600082601f830112610cb857610cb7610b8b565b5b8135610cc8848260208601610c61565b91505092915050565b600060208284031215610ce757610ce6610b81565b5b600082013567ffffffffffffffff811115610d0557610d04610b86565b5b610d1184828501610ca3565b91505092915050565b60008115159050919050565b610d2f81610d1a565b82525050565b6000602082019050610d4a6000830184610d26565b92915050565b600081519050919050565b600082825260208201905092915050565b60005b83811015610d8a578082015181840152602081019050610d6f565b60008484015250505050565b6000610da182610d50565b610dab8185610d5b565b9350610dbb818560208601610d6c565b610dc481610b95565b840191505092915050565b60006020820190508181036000830152610de98184610d96565b905092915050565b60008060408385031215610e0857610e07610b81565b5b600083013567ffffffffffffffff811115610e2657610e25610b86565b5b610e3285828601610ca3565b925050602083013567ffffffffffffffff811115610e5357610e52610b86565b5b610e5f85828601610ca3565b9150509250929050565b600073ffffffffffffffffffffffffffffffffffffffff82169050919050565b6000610e9482610e69565b9050919050565b610ea481610e89565b82525050565b6000819050919050565b610ebd81610eaa565b82525050565b6000606082019050610ed86000830186610e9b565b610ee56020830185610eb4565b610ef26040830184610d26565b949350505050565b610f0381610e89565b8114610f0e57600080fd5b50565b600081359050610f2081610efa565b92915050565b60008060408385031215610f3d57610f3c610b81565b5b600083013567ffffffffffffffff811115610f5b57610f5a610b86565b5b610f6785828601610ca3565b9250506020610f7885828601610f11565b9150509250929050565b600081905092915050565b6000610f9882610d50565b610fa28185610f82565b9350610fb2818560208601610d6c565b80840191505092915050565b6000610fca8284610f8d565b915081905092915050565b7f436572746966696361746520646f6573206e6f74206578697374000000000000600082015250565b600061100b601a83610d5b565b915061101682610fd5565b602082019050919050565b6000602082019050818103600083015261103a81610ffe565b9050919050565b7f436572746966696361746520697320616c7265616479207265766f6b65640000600082015250565b6000611077601e83610d5b565b915061108282611041565b602082019050919050565b600060208201905081810360008301526110a68161106a565b9050919050565b7f4e487b7100000000000000000000000000000000000000000000000000000000600052602260045260246000fd5b600060028204905060018216806110f457607f821691505b602082108103611107576111066110ad565b5b50919050565b7f4f7267616e69736174696f6e20646f6573206e6f742065786973740000000000600082015250565b6000611143601b83610d5b565b915061114e8261110d565b602082019050919050565b6000602082019050818103600083015261117281611136565b9050919050565b60008190508160005260206000209050919050565b60006020601f8301049050919050565b600082821b905092915050565b6000600883026111db7fffffffffffffffffffffffffffffffffffffffffffffffffffffffffffffffff8261119e565b6111e5868361119e565b95508019841693508086168417925050509392505050565b6000819050919050565b600061122261121d61121884610eaa565b6111fd565b610eaa565b9050919050565b6000819050919050565b61123c83611207565b61125061124882611229565b8484546111ab565b825550505050565b600090565b611265611258565b611270818484611233565b505050565b5b818110156112945761128960008261125d565b600181019050611276565b5050565b601f8211156112d9576112aa81611179565b6112b38461118e565b810160208510156112c2578190505b6112d66112ce8561118e565b830182611275565b50505b505050565b600082821c905092915050565b60006112fc600019846008026112de565b1980831691505092915050565b600061131583836112eb565b9150826002028217905092915050565b61132e82610d50565b67ffffffffffffffff81111561134757611346610ba6565b5b61135182546110dc565b61135c828285611298565b600060209050601f83116001811461138f576000841561137d578287015190505b6113878582611309565b8655506113ef565b601f19841661139d86611179565b60005b828110156113c5578489015182556001820191506020850194506020810190506113a0565b868310156113e257848901516113de601f8916826112eb565b8355505b6001600288020188555050505b505050505050565b7f436572746966696361746520616c726561647920657869737473000000000000600082015250565b600061142d601a83610d5b565b9150611438826113f7565b602082019050919050565b6000602082019050818103600083015261145c81611420565b905091905056fea2646970667358221220347a3dd48e8c0202ccfb8d603b0166d8d6f5189b10ff468e507aa798a4df334a64736f6c634300081c0033",
  "linkReferences": {},
  "deployedLinkReferences": {}
}