{
  "_format": "hh-sol-artifact-1",
  "contractName": "CertificateStorage",
  "sourceName": "contracts/Certificate.sol",
  "abi": [
    {
      "inputs": [
        {
          "internalType": "string",
          "name": "",
          "type": "string"
        }
      ],
      "name": "certificates",
      "outputs": [
        {
          "internalType": "address",
          "name": "issuerAddress",
          "type": "address"
        },
        {
          "internalType": "uint256",
          "name": "timeStamp",
          "type": "uint256"
        },
        {
          "internalType": "bool",
          "name": "isRevoked",
          "type": "bool"
        }
      ],
      "stateMutability": "view",
      "type": "function"
    },
    {
      "inputs": [
        {
          "internalType": "string",
          "name": "_ipfsHash",
          "type": "string"
        },
        {
          "internalType": "address",
          "name": "_issuerAddress",
          "type": "address"
        }
      ],
      "name": "checkExistence",
      "outputs": [
        {
          "internalType": "bool",
          "name": "",
          "type": "bool"
        }
      ],
      "stateMutability": "view",
      "type": "function"
    },
    {
      "inputs": [
        {
          "internalType": "string",
          "name": "_orgAddress",
          "type": "string"
        }
      ],
      "name": "checkOrganisationExistence",
      "outputs": [
        {
          "internalType": "bool",
          "name": "",
          "type": "bool"
        }
      ],
      "stateMutability": "view",
      "type": "function"
    },
    {
      "inputs": [
        {
          "internalType": "string",
          "name": "_ipfsHash",
          "type": "string"
        }
      ],
      "name": "getCertificate",
      "outputs": [
        {
          "internalType": "address",
          "name": "issuerAddress",
          "type": "address"
        },
        {
          "internalType": "uint256",
          "name": "timeStamp",
          "type": "uint256"
        },
        {
          "internalType": "bool",
          "name": "isRevoked",
          "type": "bool"
        }
      ],
      "stateMutability": "view",
      "type": "function"
    },
    {
      "inputs": [
        {
          "internalType": "string",
          "name": "",
          "type": "string"
        }
      ],
      "name": "organisations",
      "outputs": [
        {
          "internalType": "string",
          "name": "",
          "type": "string"
        }
      ],
      "stateMutability": "view",
      "type": "function"
    },
    {
      "inputs": [
        {
          "internalType": "string",
          "name": "_ipfsHash",
          "type": "string"
        }
      ],
      "name": "revokeCertificate",
      "outputs": [
        {
          "internalType": "bool",
          "name": "",
          "type": "bool"
        }
      ],
      "stateMutability": "nonpayable",
      "type": "function"
    },
    {
      "inputs": [
        {
          "internalType": "string",
          "name": "_orgAddress",
          "type": "string"
        }
      ],
      "name": "revokeOrganisation",
      "outputs": [
        {
          "internalType": "bool",
          "name": "",
          "type": "bool"
        }
      ],
      "stateMutability": "nonpayable",
      "type": "function"
    },
    {
      "inputs": [
        {
          "internalType": "string",
          "name": "_ipfsHash",
          "type": "string"
        },
        {
          "internalType": "address",
          "name": "_issuerAddress",
          "type": "address"
        }
      ],
      "name": "storeCertificate",
      "outputs": [],
      "stateMutability": "nonpayable",
      "type": "function"
    },
    {
      "inputs": [
        {
          "internalType": "string",
          "name": "_orgAddress",
          "type": "string"
        },
        {
          "internalType": "string",
          "name": "_orgName",
          "type": "string"
        }
      ],
      "name": "storeOrganisation",
      "outputs": [],
      "stateMutability": "nonpayable",
      "type": "function"
    }
  ],
  "bytecode": "0x6080604052348015600f57600080fd5b506113418061001f6000396000f3fe608060405234801561001057600080fd5b50600436106100935760003560e01c80638f2b91ea116100665780638f2b91ea14610144578063af40a7e214610176578063b04f3535146101a6578063e7993bb9146101d6578063ed0f2e75146101f257610093565b8063142e154214610098578063235dec24146100c857806363db7fb1146100f857806376ef630314610128575b600080fd5b6100b260048036038101906100ad9190610b79565b610224565b6040516100bf9190610bdd565b60405180910390f35b6100e260048036038101906100dd9190610b79565b61038d565b6040516100ef9190610bdd565b60405180910390f35b610112600480360381019061010d9190610b79565b61042e565b60405161011f9190610c77565b60405180910390f35b610142600480360381019061013d9190610c99565b6104e4565b005b61015e60048036038101906101599190610b79565b610514565b60405161016d93929190610d6b565b60405180910390f35b610190600480360381019061018b9190610b79565b610581565b60405161019d9190610bdd565b60405180910390f35b6101c060048036038101906101bb9190610dce565b6105b7565b6040516101cd9190610bdd565b60405180910390f35b6101f060048036038101906101eb9190610dce565b6106aa565b005b61020c60048036038101906102079190610b79565b61084d565b60405161021b93929190610d6b565b60405180910390f35b60008073ffffffffffffffffffffffffffffffffffffffff1660008360405161024d9190610e66565b908152602001604051809103902060000160009054906101000a900473ffffffffffffffffffffffffffffffffffffffff1673ffffffffffffffffffffffffffffffffffffffff16036102d5576040517f08c379a00000000000000000000000000000000000000000000000000000000081526004016102cc90610ec9565b60405180910390fd5b600015156000836040516102e99190610e66565b908152602001604051809103902060020160009054906101000a900460ff1615151461034a576040517f08c379a000000000000000000000000000000000000000000000000000000000815260040161034190610f35565b60405180910390fd5b600160008360405161035c9190610e66565b908152602001604051809103902060020160006101000a81548160ff02191690831515021790555060019050919050565b6000806001836040516103a09190610e66565b908152602001604051809103902080546103b990610f84565b9050116103fb576040517f08c379a00000000000000000000000000000000000000000000000000000000081526004016103f290611001565b60405180910390fd5b60018260405161040b9190610e66565b908152602001604051809103902060006104259190610989565b60019050919050565b600181805160208101820180518482526020830160208501208183528095505050505050600091509050805461046390610f84565b80601f016020809104026020016040519081016040528092919081815260200182805461048f90610f84565b80156104dc5780601f106104b1576101008083540402835291602001916104dc565b820191906000526020600020905b8154815290600101906020018083116104bf57829003601f168201915b505050505081565b806001836040516104f59190610e66565b9081526020016040518091039020908161050f91906111cd565b505050565b6000818051602081018201805184825260208301602085012081835280955050505050506000915090508060000160009054906101000a900473ffffffffffffffffffffffffffffffffffffffff16908060010154908060020160009054906101000a900460ff16905083565b6000806001836040516105949190610e66565b908152602001604051809103902080546105ad90610f84565b9050119050919050565b6000806000846040516105ca9190610e66565b90815260200160405180910390206040518060600160405290816000820160009054906101000a900473ffffffffffffffffffffffffffffffffffffffff1673ffffffffffffffffffffffffffffffffffffffff1673ffffffffffffffffffffffffffffffffffffffff168152602001600182015481526020016002820160009054906101000a900460ff16151515158152505090508273ffffffffffffffffffffffffffffffffffffffff16816000015173ffffffffffffffffffffffffffffffffffffffff161480156106a157508060400151155b91505092915050565b600073ffffffffffffffffffffffffffffffffffffffff166000836040516106d29190610e66565b908152602001604051809103902060000160009054906101000a900473ffffffffffffffffffffffffffffffffffffffff1673ffffffffffffffffffffffffffffffffffffffff161461075a576040517f08c379a0000000000000000000000000000000000000000000000000000000008152600401610751906112eb565b60405180910390fd5b6107626109c9565b81816000019073ffffffffffffffffffffffffffffffffffffffff16908173ffffffffffffffffffffffffffffffffffffffff1681525050428160200181815250506000816040019015159081151581525050806000846040516107c69190610e66565b908152602001604051809103902060008201518160000160006101000a81548173ffffffffffffffffffffffffffffffffffffffff021916908373ffffffffffffffffffffffffffffffffffffffff1602179055506020820151816001015560408201518160020160006101000a81548160ff021916908315150217905550905050505050565b6000806000806000856040516108639190610e66565b90815260200160405180910390206040518060600160405290816000820160009054906101000a900473ffffffffffffffffffffffffffffffffffffffff1673ffffffffffffffffffffffffffffffffffffffff1673ffffffffffffffffffffffffffffffffffffffff168152602001600182015481526020016002820160009054906101000a900460ff1615151515815250509050600073ffffffffffffffffffffffffffffffffffffffff16816000015173ffffffffffffffffffffffffffffffffffffffff160361096c576040517f08c379a000000000000000000000000000000000000000000000000000000000815260040161096390610ec9565b60405180910390fd5b806000015181602001518260400151935093509350509193909250565b50805461099590610f84565b6000825580601f106109a757506109c6565b601f0160209004906000526020600020908101906109c59190610a02565b5b50565b6040518060600160405280600073ffffffffffffffffffffffffffffffffffffffff168152602001600081526020016000151581525090565b5b80821115610a1b576000816000905550600101610a03565b5090565b6000604051905090565b600080fd5b600080fd5b600080fd5b600080fd5b6000601f19601f8301169050919050565b7f4e487b7100000000000000000000000000000000000000000000000000000000600052604160045260246000fd5b610a8682610a3d565b810181811067ffffffffffffffff82111715610aa557610aa4610a4e565b5b80604052505050565b6000610ab8610a1f565b9050610ac48282610a7d565b919050565b600067ffffffffffffffff821115610ae457610ae3610a4e565b5b610aed82610a3d565b9050602081019050919050565b82818337600083830152505050565b6000610b1c610b1784610ac9565b610aae565b905082815260208101848484011115610b3857610b37610a38565b5b610b43848285610afa565b509392505050565b600082601f830112610b6057610b5f610a33565b5b8135610b70848260208601610b09565b91505092915050565b600060208284031215610b8f57610b8e610a29565b5b600082013567ffffffffffffffff811115610bad57610bac610a2e565b5b610bb984828501610b4b565b91505092915050565b60008115159050919050565b610bd781610bc2565b82525050565b6000602082019050610bf26000830184610bce565b92915050565b600081519050919050565b600082825260208201905092915050565b60005b83811015610c32578082015181840152602081019050610c17565b60008484015250505050565b6000610c4982610bf8565b610c538185610c03565b9350610c63818560208601610c14565b610c6c81610a3d565b840191505092915050565b60006020820190508181036000830152610c918184610c3e565b905092915050565b60008060408385031215610cb057610caf610a29565b5b600083013567ffffffffffffffff811115610cce57610ccd610a2e565b5b610cda85828601610b4b565b925050602083013567ffffffffffffffff811115610cfb57610cfa610a2e565b5b610d0785828601610b4b565b9150509250929050565b600073ffffffffffffffffffffffffffffffffffffffff82169050919050565b6000610d3c82610d11565b9050919050565b610d4c81610d31565b82525050565b6000819050919050565b610d6581610d52565b82525050565b6000606082019050610d806000830186610d43565b610d8d6020830185610d5c565b610d9a6040830184610bce565b949350505050565b610dab81610d31565b8114610db657600080fd5b50565b600081359050610dc881610da2565b92915050565b60008060408385031215610de557610de4610a29565b5b600083013567ffffffffffffffff811115610e0357610e02610a2e565b5b610e0f85828601610b4b565b9250506020610e2085828601610db9565b9150509250929050565b600081905092915050565b6000610e4082610bf8565b610e4a8185610e2a565b9350610e5a818560208601610c14565b80840191505092915050565b6000610e728284610e35565b915081905092915050565b7f436572746966696361746520646f6573206e6f74206578697374000000000000600082015250565b6000610eb3601a83610c03565b9150610ebe82610e7d565b602082019050919050565b60006020820190508181036000830152610ee281610ea6565b9050919050565b7f436572746966696361746520697320616c7265616479207265766f6b65640000600082015250565b6000610f1f601e83610c03565b9150610f2a82610ee9565b602082019050919050565b60006020820190508181036000830152610f4e81610f12565b9050919050565b7f4e487b7100000000000000000000000000000000000000000000000000000000600052602260045260246000fd5b60006002820490506001821680610f9c57607f821691505b602082108103610faf57610fae610f55565b5b50919050565b7f4f7267616e69736174696f6e20646f6573206e6f742065786973740000000000600082015250565b6000610feb601b83610c03565b9150610ff682610fb5565b602082019050919050565b6000602082019050818103600083015261101a81610fde565b9050919050565b60008190508160005260206000209050919050565b60006020601f8301049050919050565b600082821b905092915050565b6000600883026110837fffffffffffffffffffffffffffffffffffffffffffffffffffffffffffffffff82611046565b61108d8683611046565b95508019841693508086168417925050509392505050565b6000819050919050565b60006110ca6110c56110c084610d52565b6110a5565b610d52565b9050919050565b6000819050919050565b6110e4836110af565b6110f86110f0826110d1565b848454611053565b825550505050565b600090565b61110d611100565b6111188184846110db565b505050565b5b8181101561113c57611131600082611105565b60018101905061111e565b5050565b601f8211156111815761115281611021565b61115b84611036565b8101602085101561116a578190505b61117e61117685611036565b83018261111d565b50505b505050565b600082821c905092915050565b60006111a460001984600802611186565b1980831691505092915050565b60006111bd8383611193565b9150826002028217905092915050565b6111d682610bf8565b67ffffffffffffffff8111156111ef576111ee610a4e565b5b6111f98254610f84565b611204828285611140565b600060209050601f8311600181146112375760008415611225578287015190505b61122f85826111b1565b865550611297565b601f19841661124586611021565b60005b8281101561126d57848901518255600182019150602085019450602081019050611248565b8683101561128a5784890151611286601f891682611193565b8355505b6001600288020188555050505b505050505050565b7f436572746966696361746520616c726561647920657869737473000000000000600082015250565b60006112d5601a83610c03565b91506112e08261129f565b602082019050919050565b60006020820190508181036000830152611304816112c8565b905091905056fea2646970667358221220c94c9413c5606927bcdbb45d326a1cd95c0e03c2dd2512ced5c24001808d35ae64736f6c634300081c0033",
  "linkReferences": {},
  "deployedLinkReferences": {}
}