{
  "_format": "hh-sol-artifact-1",
  "contractName": "CertificateStorage",
  "sourceName": "contracts/Certificate.sol",
  "abi": [
    {
      "inputs": [
        {
          "internalType": "string",
          "name": "",
          "type": "string"
        }
      ],
      "name": "certificates",
      "outputs": [
        {
          "internalType": "address",
          "name": "issuerAddress",
          "type": "address"
        },
        {
          "internalType": "uint256",
          "name": "timeStamp",
          "type": "uint256"
        },
        {
          "internalType": "bool",
          "name": "isRevoked",
          "type": "bool"
        },
        {
          "internalType": "string",
          "name": "name",
          "type": "string"
        },
        {
          "internalType": "string",
          "name": "title",
          "type": "string"
        },
        {
          "internalType": "string",
          "name": "extra_info",
          "type": "string"
        }
      ],
      "stateMutability": "view",
      "type": "function"
    },
    {
      "inputs": [
        {
          "internalType": "string",
          "name": "_ipfsHash",
          "type": "string"
        },
        {
          "internalType": "address",
          "name": "_issuerAddress",
          "type": "address"
        }
      ],
      "name": "checkExistence",
      "outputs": [
        {
          "internalType": "bool",
          "name": "",
          "type": "bool"
        }
      ],
      "stateMutability": "view",
      "type": "function"
    },
    {
      "inputs": [
        {
          "internalType": "string",
          "name": "_orgAddress",
          "type": "string"
        }
      ],
      "name": "checkOrganisationExistence",
      "outputs": [
        {
          "internalType": "bool",
          "name": "",
          "type": "bool"
        }
      ],
      "stateMutability": "view",
      "type": "function"
    },
    {
      "inputs": [
        {
          "internalType": "string",
          "name": "_ipfsHash",
          "type": "string"
        }
      ],
      "name": "getCertificate",
      "outputs": [
        {
          "internalType": "address",
          "name": "issuerAddress",
          "type": "address"
        },
        {
          "internalType": "uint256",
          "name": "timeStamp",
          "type": "uint256"
        },
        {
          "internalType": "bool",
          "name": "isRevoked",
          "type": "bool"
        },
        {
          "internalType": "string",
          "name": "name",
          "type": "string"
        },
        {
          "internalType": "string",
          "name": "title",
          "type": "string"
        },
        {
          "internalType": "string",
          "name": "extra_info",
          "type": "string"
        }
      ],
      "stateMutability": "view",
      "type": "function"
    },
    {
      "inputs": [
        {
          "internalType": "string",
          "name": "_orgAddress",
          "type": "string"
        }
      ],
      "name": "getOrgName",
      "outputs": [
        {
          "internalType": "string",
          "name": "",
          "type": "string"
        }
      ],
      "stateMutability": "view",
      "type": "function"
    },
    {
      "inputs": [
        {
          "internalType": "string",
          "name": "",
          "type": "string"
        }
      ],
      "name": "organisations",
      "outputs": [
        {
          "internalType": "string",
          "name": "",
          "type": "string"
        }
      ],
      "stateMutability": "view",
      "type": "function"
    },
    {
      "inputs": [
        {
          "internalType": "string",
          "name": "_ipfsHash",
          "type": "string"
        }
      ],
      "name": "revokeCertificate",
      "outputs": [
        {
          "internalType": "bool",
          "name": "",
          "type": "bool"
        }
      ],
      "stateMutability": "nonpayable",
      "type": "function"
    },
    {
      "inputs": [
        {
          "internalType": "string",
          "name": "_orgAddress",
          "type": "string"
        }
      ],
      "name": "revokeOrganisation",
      "outputs": [
        {
          "internalType": "bool",
          "name": "",
          "type": "bool"
        }
      ],
      "stateMutability": "nonpayable",
      "type": "function"
    },
    {
      "inputs": [
        {
          "internalType": "string",
          "name": "_ipfsHash",
          "type": "string"
        },
        {
          "internalType": "address",
          "name": "_issuerAddress",
          "type": "address"
        },
        {
          "internalType": "string",
          "name": "_name",
          "type": "string"
        },
        {
          "internalType": "string",
          "name": "_title",
          "type": "string"
        },
        {
          "internalType": "string",
          "name": "_extra_info",
          "type": "string"
        }
      ],
      "name": "storeCertificate",
      "outputs": [],
      "stateMutability": "nonpayable",
      "type": "function"
    },
    {
      "inputs": [
        {
          "internalType": "string",
          "name": "_orgAddress",
          "type": "string"
        },
        {
          "internalType": "string",
          "name": "_orgName",
          "type": "string"
        }
      ],
      "name": "storeOrganisation",
      "outputs": [],
      "stateMutability": "nonpayable",
      "type": "function"
    }
  ],
  "bytecode": "0x6080604052348015600f57600080fd5b50611b708061001f6000396000f3fe608060405234801561001057600080fd5b506004361061009e5760003560e01c806376ef63031161006657806376ef63031461017f5780638f2b91ea1461019b578063af40a7e2146101d0578063b04f353514610200578063ed0f2e75146102305761009e565b8063142e1542146100a3578063235dec24146100d357806327aca85a1461010357806363db7fb114610133578063677e621a14610163575b600080fd5b6100bd60048036038101906100b8919061127e565b610265565b6040516100ca91906112e2565b60405180910390f35b6100ed60048036038101906100e8919061127e565b6103ce565b6040516100fa91906112e2565b60405180910390f35b61011d6004803603810190610118919061127e565b61046f565b60405161012a919061137c565b60405180910390f35b61014d6004803603810190610148919061127e565b61058c565b60405161015a919061137c565b60405180910390f35b61017d600480360381019061017891906113fc565b610642565b005b610199600480360381019061019491906114e7565b610845565b005b6101b560048036038101906101b0919061127e565b610875565b6040516101c796959493929190611587565b60405180910390f35b6101ea60048036038101906101e5919061127e565b610a8c565b6040516101f791906112e2565b60405180910390f35b61021a600480360381019061021591906115fd565b610ac2565b60405161022791906112e2565b60405180910390f35b61024a6004803603810190610245919061127e565b610d6b565b60405161025c96959493929190611587565b60405180910390f35b60008073ffffffffffffffffffffffffffffffffffffffff1660008360405161028e9190611695565b908152602001604051809103902060000160009054906101000a900473ffffffffffffffffffffffffffffffffffffffff1673ffffffffffffffffffffffffffffffffffffffff1603610316576040517f08c379a000000000000000000000000000000000000000000000000000000000815260040161030d906116f8565b60405180910390fd5b6000151560008360405161032a9190611695565b908152602001604051809103902060020160009054906101000a900460ff1615151461038b576040517f08c379a000000000000000000000000000000000000000000000000000000000815260040161038290611764565b60405180910390fd5b600160008360405161039d9190611695565b908152602001604051809103902060020160006101000a81548160ff02191690831515021790555060019050919050565b6000806001836040516103e19190611695565b908152602001604051809103902080546103fa906117b3565b90501161043c576040517f08c379a000000000000000000000000000000000000000000000000000000000815260040161043390611830565b60405180910390fd5b60018260405161044c9190611695565b908152602001604051809103902060006104669190611079565b60019050919050565b606060006001836040516104839190611695565b9081526020016040518091039020805461049c906117b3565b9050116104de576040517f08c379a00000000000000000000000000000000000000000000000000000000081526004016104d590611830565b60405180910390fd5b6001826040516104ee9190611695565b90815260200160405180910390208054610507906117b3565b80601f0160208091040260200160405190810160405280929190818152602001828054610533906117b3565b80156105805780601f1061055557610100808354040283529160200191610580565b820191906000526020600020905b81548152906001019060200180831161056357829003601f168201915b50505050509050919050565b60018180516020810182018051848252602083016020850120818352809550505050505060009150905080546105c1906117b3565b80601f01602080910402602001604051908101604052809291908181526020018280546105ed906117b3565b801561063a5780601f1061060f5761010080835404028352916020019161063a565b820191906000526020600020905b81548152906001019060200180831161061d57829003601f168201915b505050505081565b600073ffffffffffffffffffffffffffffffffffffffff1660008660405161066a9190611695565b908152602001604051809103902060000160009054906101000a900473ffffffffffffffffffffffffffffffffffffffff1673ffffffffffffffffffffffffffffffffffffffff16146106f2576040517f08c379a00000000000000000000000000000000000000000000000000000000081526004016106e99061189c565b60405180910390fd5b6106fa6110b9565b84816000019073ffffffffffffffffffffffffffffffffffffffff16908173ffffffffffffffffffffffffffffffffffffffff1681525050428160200181815250506000816040019015159081151581525050838160600181905250828160800181905250818160a00181905250806000876040516107799190611695565b908152602001604051809103902060008201518160000160006101000a81548173ffffffffffffffffffffffffffffffffffffffff021916908373ffffffffffffffffffffffffffffffffffffffff1602179055506020820151816001015560408201518160020160006101000a81548160ff021916908315150217905550606082015181600301908161080d9190611a68565b5060808201518160040190816108239190611a68565b5060a08201518160050190816108399190611a68565b50905050505050505050565b806001836040516108569190611695565b908152602001604051809103902090816108709190611a68565b505050565b6000818051602081018201805184825260208301602085012081835280955050505050506000915090508060000160009054906101000a900473ffffffffffffffffffffffffffffffffffffffff16908060010154908060020160009054906101000a900460ff16908060030180546108ed906117b3565b80601f0160208091040260200160405190810160405280929190818152602001828054610919906117b3565b80156109665780601f1061093b57610100808354040283529160200191610966565b820191906000526020600020905b81548152906001019060200180831161094957829003601f168201915b50505050509080600401805461097b906117b3565b80601f01602080910402602001604051908101604052809291908181526020018280546109a7906117b3565b80156109f45780601f106109c9576101008083540402835291602001916109f4565b820191906000526020600020905b8154815290600101906020018083116109d757829003601f168201915b505050505090806005018054610a09906117b3565b80601f0160208091040260200160405190810160405280929190818152602001828054610a35906117b3565b8015610a825780601f10610a5757610100808354040283529160200191610a82565b820191906000526020600020905b815481529060010190602001808311610a6557829003601f168201915b5050505050905086565b600080600183604051610a9f9190611695565b90815260200160405180910390208054610ab8906117b3565b9050119050919050565b600080600084604051610ad59190611695565b90815260200160405180910390206040518060c00160405290816000820160009054906101000a900473ffffffffffffffffffffffffffffffffffffffff1673ffffffffffffffffffffffffffffffffffffffff1673ffffffffffffffffffffffffffffffffffffffff168152602001600182015481526020016002820160009054906101000a900460ff16151515158152602001600382018054610b79906117b3565b80601f0160208091040260200160405190810160405280929190818152602001828054610ba5906117b3565b8015610bf25780601f10610bc757610100808354040283529160200191610bf2565b820191906000526020600020905b815481529060010190602001808311610bd557829003601f168201915b50505050508152602001600482018054610c0b906117b3565b80601f0160208091040260200160405190810160405280929190818152602001828054610c37906117b3565b8015610c845780601f10610c5957610100808354040283529160200191610c84565b820191906000526020600020905b815481529060010190602001808311610c6757829003601f168201915b50505050508152602001600582018054610c9d906117b3565b80601f0160208091040260200160405190810160405280929190818152602001828054610cc9906117b3565b8015610d165780601f10610ceb57610100808354040283529160200191610d16565b820191906000526020600020905b815481529060010190602001808311610cf957829003601f168201915b50505050508152505090508273ffffffffffffffffffffffffffffffffffffffff16816000015173ffffffffffffffffffffffffffffffffffffffff16148015610d6257508060400151155b91505092915050565b6000806000606080606060008088604051610d869190611695565b90815260200160405180910390206040518060c00160405290816000820160009054906101000a900473ffffffffffffffffffffffffffffffffffffffff1673ffffffffffffffffffffffffffffffffffffffff1673ffffffffffffffffffffffffffffffffffffffff168152602001600182015481526020016002820160009054906101000a900460ff16151515158152602001600382018054610e2a906117b3565b80601f0160208091040260200160405190810160405280929190818152602001828054610e56906117b3565b8015610ea35780601f10610e7857610100808354040283529160200191610ea3565b820191906000526020600020905b815481529060010190602001808311610e8657829003601f168201915b50505050508152602001600482018054610ebc906117b3565b80601f0160208091040260200160405190810160405280929190818152602001828054610ee8906117b3565b8015610f355780601f10610f0a57610100808354040283529160200191610f35565b820191906000526020600020905b815481529060010190602001808311610f1857829003601f168201915b50505050508152602001600582018054610f4e906117b3565b80601f0160208091040260200160405190810160405280929190818152602001828054610f7a906117b3565b8015610fc75780601f10610f9c57610100808354040283529160200191610fc7565b820191906000526020600020905b815481529060010190602001808311610faa57829003601f168201915b5050505050815250509050600073ffffffffffffffffffffffffffffffffffffffff16816000015173ffffffffffffffffffffffffffffffffffffffff1603611045576040517f08c379a000000000000000000000000000000000000000000000000000000000815260040161103c906116f8565b60405180910390fd5b806000015181602001518260400151836060015184608001518560a001519650965096509650965096505091939550919395565b508054611085906117b3565b6000825580601f1061109757506110b6565b601f0160209004906000526020600020908101906110b59190611107565b5b50565b6040518060c00160405280600073ffffffffffffffffffffffffffffffffffffffff168152602001600081526020016000151581526020016060815260200160608152602001606081525090565b5b80821115611120576000816000905550600101611108565b5090565b6000604051905090565b600080fd5b600080fd5b600080fd5b600080fd5b6000601f19601f8301169050919050565b7f4e487b7100000000000000000000000000000000000000000000000000000000600052604160045260246000fd5b61118b82611142565b810181811067ffffffffffffffff821117156111aa576111a9611153565b5b80604052505050565b60006111bd611124565b90506111c98282611182565b919050565b600067ffffffffffffffff8211156111e9576111e8611153565b5b6111f282611142565b9050602081019050919050565b82818337600083830152505050565b600061122161121c846111ce565b6111b3565b90508281526020810184848401111561123d5761123c61113d565b5b6112488482856111ff565b509392505050565b600082601f83011261126557611264611138565b5b813561127584826020860161120e565b91505092915050565b6000602082840312156112945761129361112e565b5b600082013567ffffffffffffffff8111156112b2576112b1611133565b5b6112be84828501611250565b91505092915050565b60008115159050919050565b6112dc816112c7565b82525050565b60006020820190506112f760008301846112d3565b92915050565b600081519050919050565b600082825260208201905092915050565b60005b8381101561133757808201518184015260208101905061131c565b60008484015250505050565b600061134e826112fd565b6113588185611308565b9350611368818560208601611319565b61137181611142565b840191505092915050565b600060208201905081810360008301526113968184611343565b905092915050565b600073ffffffffffffffffffffffffffffffffffffffff82169050919050565b60006113c98261139e565b9050919050565b6113d9816113be565b81146113e457600080fd5b50565b6000813590506113f6816113d0565b92915050565b600080600080600060a086880312156114185761141761112e565b5b600086013567ffffffffffffffff81111561143657611435611133565b5b61144288828901611250565b9550506020611453888289016113e7565b945050604086013567ffffffffffffffff81111561147457611473611133565b5b61148088828901611250565b935050606086013567ffffffffffffffff8111156114a1576114a0611133565b5b6114ad88828901611250565b925050608086013567ffffffffffffffff8111156114ce576114cd611133565b5b6114da88828901611250565b9150509295509295909350565b600080604083850312156114fe576114fd61112e565b5b600083013567ffffffffffffffff81111561151c5761151b611133565b5b61152885828601611250565b925050602083013567ffffffffffffffff81111561154957611548611133565b5b61155585828601611250565b9150509250929050565b611568816113be565b82525050565b6000819050919050565b6115818161156e565b82525050565b600060c08201905061159c600083018961155f565b6115a96020830188611578565b6115b660408301876112d3565b81810360608301526115c88186611343565b905081810360808301526115dc8185611343565b905081810360a08301526115f08184611343565b9050979650505050505050565b600080604083850312156116145761161361112e565b5b600083013567ffffffffffffffff81111561163257611631611133565b5b61163e85828601611250565b925050602061164f858286016113e7565b9150509250929050565b600081905092915050565b600061166f826112fd565b6116798185611659565b9350611689818560208601611319565b80840191505092915050565b60006116a18284611664565b915081905092915050565b7f436572746966696361746520646f6573206e6f74206578697374000000000000600082015250565b60006116e2601a83611308565b91506116ed826116ac565b602082019050919050565b60006020820190508181036000830152611711816116d5565b9050919050565b7f436572746966696361746520697320616c7265616479207265766f6b65640000600082015250565b600061174e601e83611308565b915061175982611718565b602082019050919050565b6000602082019050818103600083015261177d81611741565b9050919050565b7f4e487b7100000000000000000000000000000000000000000000000000000000600052602260045260246000fd5b600060028204905060018216806117cb57607f821691505b6020821081036117de576117dd611784565b5b50919050565b7f4f7267616e69736174696f6e20646f6573206e6f742065786973740000000000600082015250565b600061181a601b83611308565b9150611825826117e4565b602082019050919050565b600060208201905081810360008301526118498161180d565b9050919050565b7f436572746966696361746520616c726561647920657869737473000000000000600082015250565b6000611886601a83611308565b915061189182611850565b602082019050919050565b600060208201905081810360008301526118b581611879565b9050919050565b60008190508160005260206000209050919050565b60006020601f8301049050919050565b600082821b905092915050565b60006008830261191e7fffffffffffffffffffffffffffffffffffffffffffffffffffffffffffffffff826118e1565b61192886836118e1565b95508019841693508086168417925050509392505050565b6000819050919050565b600061196561196061195b8461156e565b611940565b61156e565b9050919050565b6000819050919050565b61197f8361194a565b61199361198b8261196c565b8484546118ee565b825550505050565b600090565b6119a861199b565b6119b3818484611976565b505050565b5b818110156119d7576119cc6000826119a0565b6001810190506119b9565b5050565b601f821115611a1c576119ed816118bc565b6119f6846118d1565b81016020851015611a05578190505b611a19611a11856118d1565b8301826119b8565b50505b505050565b600082821c905092915050565b6000611a3f60001984600802611a21565b1980831691505092915050565b6000611a588383611a2e565b9150826002028217905092915050565b611a71826112fd565b67ffffffffffffffff811115611a8a57611a89611153565b5b611a9482546117b3565b611a9f8282856119db565b600060209050601f831160018114611ad25760008415611ac0578287015190505b611aca8582611a4c565b865550611b32565b601f198416611ae0866118bc565b60005b82811015611b0857848901518255600182019150602085019450602081019050611ae3565b86831015611b255784890151611b21601f891682611a2e565b8355505b6001600288020188555050505b50505050505056fea26469706673582212205fae8a78bf291545f6a42f77cfb32518d1d1f5cffb98df420c3669a13e00108064736f6c634300081c0033",
  "linkReferences": {},
  "deployedLinkReferences": {}
}