{
  "_format": "hh-sol-artifact-1",
  "contractName": "CertificateStorage",
  "sourceName": "contracts/Certificate.sol",
  "abi": [
    {
      "inputs": [
        {
          "internalType": "string",
          "name": "",
          "type": "string"
        }
      ],
      "name": "certificates",
      "outputs": [
        {
          "internalType": "address",
          "name": "issuerAddress",
          "type": "address"
        },
        {
          "internalType": "uint256",
          "name": "timeStamp",
          "type": "uint256"
        }
      ],
      "stateMutability": "view",
      "type": "function"
    },
    {
      "inputs": [
        {
          "internalType": "string",
          "name": "_ipfsHash",
          "type": "string"
        }
      ],
      "name": "checkExistence",
      "outputs": [
        {
          "internalType": "bool",
          "name": "",
          "type": "bool"
        }
      ],
      "stateMutability": "view",
      "type": "function"
    },
    {
      "inputs": [
        {
          "internalType": "string",
          "name": "_ipfsHash",
          "type": "string"
        },
        {
          "internalType": "address",
          "name": "_issuerAddress",
          "type": "address"
        }
      ],
      "name": "storeCertificate",
      "outputs": [],
      "stateMutability": "nonpayable",
      "type": "function"
    }
  ],
  "bytecode": "0x6080604052348015600f57600080fd5b5061062b8061001f6000396000f3fe608060405234801561001057600080fd5b50600436106100415760003560e01c80638f2b91ea14610046578063c2f625be14610077578063e7993bb9146100a7575b600080fd5b610060600480360381019061005b91906103e3565b6100c3565b60405161006e929190610486565b60405180910390f35b610091600480360381019061008c91906103e3565b61011d565b60405161009e91906104ca565b60405180910390f35b6100c160048036038101906100bc9190610511565b610197565b005b6000818051602081018201805184825260208301602085012081835280955050505050506000915090508060000160009054906101000a900473ffffffffffffffffffffffffffffffffffffffff16908060010154905082565b60008073ffffffffffffffffffffffffffffffffffffffff1660008360405161014691906105de565b908152602001604051809103902060000160009054906101000a900473ffffffffffffffffffffffffffffffffffffffff1673ffffffffffffffffffffffffffffffffffffffff1614159050919050565b61019f610259565b81816000019073ffffffffffffffffffffffffffffffffffffffff16908173ffffffffffffffffffffffffffffffffffffffff168152505042816020018181525050806000846040516101f291906105de565b908152602001604051809103902060008201518160000160006101000a81548173ffffffffffffffffffffffffffffffffffffffff021916908373ffffffffffffffffffffffffffffffffffffffff16021790555060208201518160010155905050505050565b6040518060400160405280600073ffffffffffffffffffffffffffffffffffffffff168152602001600081525090565b6000604051905090565b600080fd5b600080fd5b600080fd5b600080fd5b6000601f19601f8301169050919050565b7f4e487b7100000000000000000000000000000000000000000000000000000000600052604160045260246000fd5b6102f0826102a7565b810181811067ffffffffffffffff8211171561030f5761030e6102b8565b5b80604052505050565b6000610322610289565b905061032e82826102e7565b919050565b600067ffffffffffffffff82111561034e5761034d6102b8565b5b610357826102a7565b9050602081019050919050565b82818337600083830152505050565b600061038661038184610333565b610318565b9050828152602081018484840111156103a2576103a16102a2565b5b6103ad848285610364565b509392505050565b600082601f8301126103ca576103c961029d565b5b81356103da848260208601610373565b91505092915050565b6000602082840312156103f9576103f8610293565b5b600082013567ffffffffffffffff81111561041757610416610298565b5b610423848285016103b5565b91505092915050565b600073ffffffffffffffffffffffffffffffffffffffff82169050919050565b60006104578261042c565b9050919050565b6104678161044c565b82525050565b6000819050919050565b6104808161046d565b82525050565b600060408201905061049b600083018561045e565b6104a86020830184610477565b9392505050565b60008115159050919050565b6104c4816104af565b82525050565b60006020820190506104df60008301846104bb565b92915050565b6104ee8161044c565b81146104f957600080fd5b50565b60008135905061050b816104e5565b92915050565b6000806040838503121561052857610527610293565b5b600083013567ffffffffffffffff81111561054657610545610298565b5b610552858286016103b5565b9250506020610563858286016104fc565b9150509250929050565b600081519050919050565b600081905092915050565b60005b838110156105a1578082015181840152602081019050610586565b60008484015250505050565b60006105b88261056d565b6105c28185610578565b93506105d2818560208601610583565b80840191505092915050565b60006105ea82846105ad565b91508190509291505056fea2646970667358221220831bb0189999193387e22df9b603d380994264f47ee83780a423347bda96e24464736f6c634300081c0033",
  "linkReferences": {},
  "deployedLinkReferences": {}
}